:10008D00042424247FC4440404FF044434050400E0
:10009D0000101221FE40820204C8302844821F0045
:1000AD000126342C2424374C44444C74C44506009A
:1000BD000082848991E1B2AAA4A4AAB281010100AF
:1000CD000001061FE0020418F010131010141800A0
:1000DD00800000FF000830C00201FE0080601800A3
:10000300E4F508F509F50AF50BE4F590F580F5A09C
:10001300E508250BFF90008D93F580EF90009D93ED
:10002300F5A0E50854074290E508C394085006D2AA
:1000330093C2948004D294C2930508E508B41030A7
:100043007410250BF50BB43003E4F50BE4F508F558
:1000530009F50AAE09AF0AE4FCFD7B507AC3F9F84F
:10006300D31200ED400A050AE50A70E7050980E3AB
:10007300E4F509F50AC3E50A9450E50994005089AB
:0A008300050AE50A70EF050980EB9D
:03000000020103F7
:0C010300787FE4F6D8FD75810B02000344
:1000ED00EB9FF5F0EA9E42F0E99D42F0EC6480C88A
:0600FD0064809845F0222A
:00000001FF
