:0A00B7003F065B4F666D7D077F6F0B
:0300C9000108002B
:0300030002009266
:10009200C0E0C0F0C083C082C0D00508E50875F09A
:1000A2000A84E5F09000B793F5A0D0D0D082D08337
:0500B200D0F0D0E032A7
:0800C100D288D2AFD2A880FE64
:03000000020006F5
:0C000600787FE4F6D8FD75810802004DFB
:100012000200C1E493A3F8E493A34003F68001F243
:1000220008DFF48029E493A3F85407240CC8C333EF
:10003200C4540F4420C8834004F456800146F6DFBE
:10004200E4800B01020408102040809000C9E47E85
:10005200019360BCA3FF543F30E509541FFEE493B3
:10006200A360010ECF54C025E060A840B8E493A37A
:10007200FAE493A3F8E493A3C8C582C8CAC583CAA5
:10008200F0A3C8C582C8CAC583CADFE9DEE780BE5D
:0100CC000033
:00000001FF
