:0D00A500D290D2910000C2900000C29122C2
:0900BE00C290D2910000D2902200
:10000300E4FEEF30E704D2908002C2900000D29168
:1000130000EF25E0FFC291000EBE08E6D29000D2A9
:05002300910000C291F4
:0100280022B5
:10002900E4FFFEEF25E0FFD290D291000030900569
:1000390043070180035307FEC29100000EBE08E387
:010049002294
:02004A00AD0700
:10004C00E4FF1200A57FA2120003AF0512000312F9
:0D005C0000A57FA31200031200291200BEB0
:010069002274
:10006A00AC071200A57FA2120003AF04120003AF6F
:07007A00051200030200BEA5
:0E009600E4FFFE0FBF00010EBE4EF8BF20F5C6
:0100A4002239
:10008100E4FBFDFF12006A7F0212004AAB078B807E
:0500910012009680F250
:030000000200B249
:0C00B200787FE4F6D8FD7581070200811C
:00000001FF
