:0D009400D294D2950000C2940000C29522C3
:0900AD00C294D2950000D2942205
:10000300E4FEEF30E704D2948002C2940000D2955C
:1000130000EF25E0FFC295000EBE08E6D29400D2A1
:05002300950000C295EC
:0100280022B5
:10002900E4FFFEEF25E0FFD294D29500003094055D
:1000390043070180035307FEC29500000EBE08E383
:010049002294
:10006A00AC071200947FA0120003AF04120003AF82
:07007A00051200030200ADB6
:02004A00AD0700
:10004C00E4FF1200947FA0120003AF05120003120C
:0D005C0000947FA11200031200291200ADD4
:010069002274
:10008100E4FD7F0312004AAD078D800D7F0312004E
:030091006A80FE84
:030000000200A15A
:0C00A100787FE4F6D8FD7581070200812D
:00000001FF
