:0D00AA00D296D2970000C2960000C29722A5
:0900C300C296D2970000D29622E9
:10000300E4FEEF30E704D2968002C2960000D29756
:1000130000EF25E0FFC297000EBE08E6D29600D29D
:05002300970000C297E8
:0100280022B5
:10004B00E4FFFEEF25E0FFD296D297000030960535
:10005B0043070180035307FEC29700000EBE08E35F
:01006B002272
:02002900AD0721
:10002B00E4FF1200AA7F90120003ED4440FF120080
:0F003B00031200AA7F9112000312004B1200C3A0
:01004A002293
:10008400AD071200AA7F901200037F40120003AF55
:07009400051200030200C386
:0E009B00E4FFFE0FBF00010EBE4EF8BF20F5C1
:0100A9002234
:10006C00E4FC7F01120029AC078C8012009BAF04CA
:08007C0012008412009B80EACF
:030000000200B744
:0C00B700787FE4F6D8FD75810702006C2C
:00000001FF
