:1000550049206C6F766520796F75001F2020202060
:1000650020101020202020201F000000804020109C
:0A0075000804040810204080000079
:1000A6007C007D641200D2E4FDC3ED9FEC9E5007F8
:0700B6000DBD00010C80F2FA
:0100BD002220
:0F00E400C2A5D2A47580FFD2A32087FDC2A3229C
:0B011B00D2A5C2A48F80D2A3C2A322F1
:0E00F3001200E4D2A5C2A48F80D2A3C2A32221
:0900BE007F057E001200A67F38C8
:0B00C700C2A5C2A48F80D2A3C2A32256
:0E0101001200E4C2A5C2A48F80D2A3C2A32222
:10007F007F0F1200C01200BE1200BE1201017F08D6
:10008F001201017F011201017F061201017F0C1283
:07009F0001017F8002010155
:10000300E4FEFBFA12007FE4FEEE90005593FF122C
:1000130000F30EBE0AF3E4F590F580F5A0EB900033
:100023005F93F580EB90006F93F5A0EB540742903C
:10003300EBC394085006D293C2948004D294C29323
:100043000BEBB41002E4FBE4FAEAC3945050C70A82
:0200530080F734
:0300000002010FEB
:0C010F00787FE4F6D8FD7581070200033C
:1000D200EF8DF0A4A8F0CF8CF0A428CE8DF0A42E42
:0200E200FE22FC
:00000001FF
