:10012E003F065B4F666D7D077F6F0102040810204E
:0A013E004080C0E0F0F8FCFEFF0076
:10000300E4F508F509F50AF50BE4F5A0E508B410E5
:1000130003E4F508050BE50B7002050AFFAE0ABE03
:100023002708BF1005E4F50AF50BE509700D759077
:100033000BAE0AAF0B7C037DE8801DE509B40225F6
:1000430075900AAE0AAF0B7C037DE81200D97E00DF
:100053007F64CFCDCFCECCCE1200D9742E2FF582B4
:1000630074013E8040E509B40325759009AE0AAFDB
:100073000B7C007D641200D97E007F0ACFCDCFCEEA
:10008300CCCE1200D9742E2FF58274013E801675E2
:100093009008AE0AAF0B7C007D0A1200D9742E2D96
:1000A300F58274013CF583E493F5A00509E509B4F1
:1000B3000403E4F509AF080508EF90013893F580D0
:1000C300E4FAFBC3EB94E8EA9403400302000C0B4D
:0600D300BB00010A80EDF4
:03000000020148B2
:0C014800787FE4F6D8FD75810B020003FF
:1000D900BC000BBE0029EF8DF084FFADF022E4CC0B
:1000E900F875F008EF2FFFEE33FEEC33FCEE9DECD4
:1000F900984005FCEE9DFE0FD5F0E9E4CEFD22ED1A
:10010900F8F5F0EE8420D21CFEADF075F008EF2F63
:10011900FFED33FD4007985006D5F0F222C398FD54
:050129000FD5F0EA22F1
:00000001FF
