:0F02C600010800010900010B00010C00010A00F2
:100282007C007D64120233E4FDC3ED9FEC9E5007B7
:070292000DBD00010C80F21C
:010299002242
:0F02D600C2A5D2A47580FFD2A32087FDC2A322A8
:0E02E5001202D6D2A5C2A48F80D2A3C2A32239
:0902B2007F057E001202827F38F4
:0B02BB00C2A5C2A48F80D2A3C2A32260
:0E02F3001202D6C2A5C2A48F80D2A3C2A3223B
:10025B007F0F1202B41202B21202B21202F37F0823
:10026B001202F37F011202F37F061202F37F0C12CC
:07027B0002F37F800202F391
:10029A00AE0753060F530501ED7003EE8003EE24FB
:0802AA00404480FF1202F32220
:0A030100AC0312029AAF040202E5F9
:1001F400E4FFFE758CFF758AA3C28DD28C308DFD11
:10020400C28C758CFF758AC8C28DD28C308DFDC2AC
:100214008C30B612430701758CFF758AB6C28DD235
:0E0224008C308DFDC28CEF25E0FF0EBE08C5AC
:0102320022A9
:1000D700D2B6C2B6758C6F758AFFC28DD28C308D41
:1000E700FDC28CD2B6758CFF758AB6C28DD28C30A4
:1000F7008DFDC28C758CFF758A6AC28DD28C308D4E
:10010700FDC28C758CFF758A6AC28DD28C308DFDCD
:10011700C28C1201F48F081201F48F091201F48FB7
:100127000B1201F48F0C1201F48F0A758CFF758A7C
:10013700A3C28DD28C308DFDC28CE5082509FFE462
:1001470033FE7C00EF250BFFEC3EFEEF250CFFECAA
:100157003EFEE50AB50707ECB506037F01227F00DF
:010167002275
:10000300900000758901C28CC2A912025B1200D74D
:10001300EF60FAE508D394634003E4F508E50BD3F6
:1000230094634003E4F50B7B52E4FDFF1203017B71
:1000330048E4FD7F011203017B3AE4FD7F021203D2
:1000430001E50875F00A842430FBE4FD7F03120305
:1000530001E50875F00A84E5F02430FBE4FD7F0434
:100063001203017B25E4FD7F051203017B547D010F
:10007300E4FF1203017B3A7D017F01120301E50BCB
:1000830075F00A842430FB7D017F02120301E50B26
:1000930075F00A84E5F02430FB7D017F0312030130
:1000A3007BDF7D017F041203017B437D017F05120A
:1000B3000301E4F583F582AF82AE83EE3395E0FD71
:1000C300FCE47B507AC3F9F8D312024550030200D3
:0400D30010A380E313
:0300000002016892
:0C016800787FE4F6D8FD75810C0201AF31
:10023300EF8DF0A4A8F0CF8CF0A428CE8DF0A42EDF
:02024300FE2299
:10024500EB9FF5F0EA9E42F0E99D42F0EC6480C830
:0602550064809845F022D0
:10017400020003E493A3F8E493A34003F68001F29E
:1001840008DFF48029E493A3F85407240CC8C3338C
:10019400C4540F4420C8834004F456800146F6DF5B
:1001A400E4800B01020408102040809002C6E47E23
:1001B400019360BCA3FF543F30E509541FFEE49350
:1001C400A360010ECF54C025E060A840B8E493A317
:1001D400FAE493A3F8E493A3C8C582C8CAC583CA42
:1001E400F0A3C8C582C8CAC583CADFE9DEE780BEFA
:0102D5000028
:00000001FF
