:0300C9000108002B
:03002300020003D5
:10000300C0E0309810859908850880C298E50804F7
:0D001300F5993099FD309902C299D0E03284
:1000B20053890F438920758DFA758BFAD28E759804
:0700C20050D2ACD2AF80FE6A
:03000000020026D5
:0C002600787FE4F6D8FD75810802006DBB
:100032000200B2E493A3F8E493A34003F68001F232
:1000420008DFF48029E493A3F85407240CC8C333CF
:10005200C4540F4420C8834004F456800146F6DF9E
:10006200E4800B01020408102040809000C9E47E65
:10007200019360BCA3FF543F30E509541FFEE49393
:10008200A360010ECF54C025E060A840B8E493A35A
:10009200FAE493A3F8E493A3C8C582C8CAC583CA85
:1000A200F0A3C8C582C8CAC583CADFE9DEE780BE3D
:0100CC000033
:00000001FF
